:100000003FC259C258C257C256C255C292C553C206
:1000100052C251C250C29BC54EC24DC24CC24BC20D
:100020004AC2000000000000002F00000007000787
:1000300000147F147F14242A7F2A12231308646279
:1000400036495522500005030000001C22410000E3
:1000500041221C0014083E081408083E080800004D
:10006000A060000808080808006060000020100870
:1000700004023E5149453E00427F400042615149E1
:10008000462141454B311814127F1027454545390B
:100090003C4A494930017109050336494949360648
:1000A0004949291E00363600000056360000081463
:1000B00022410014141414140041221408020151A6
:1000C0000906324959513E7C1211127C7F49494937
:1000D000363E414141227F4141221C7F49494941ED
:1000E0007F090909013E4149497A7F0808087F00D4
:1000F000417F41002040413F017F081422417F4061
:100100004040407F020C027F7F0408107F3E414147
:10011000413E7F090909063E4151215E7F091929A7
:1001200046464949493101017F01013F4040403F76
:100130001F2040201F3F4038403F631408146307CE
:10014000087008076151494543007F41410002049E
:100150000810200041417F00040201020440404099
:100160004040000102040020545454787F48444425
:10017000383844444420384444487F385454541850
:10018000087E09010218A4A4A47C7F080404780056
:10019000447D40004080847D007F10284400004161
:1001A0007F40007C041804787C08040478384444B8
:1001B0004438FC2424241818242418FC7C08040443
:1001C000084854545420043F4440203C4040207C84
:1001D0001C2040201C3C4030403C44281028441C3B
:1001E000A0A0A07C4464544C440836414100000067
:1001F0007F000000414136080804081008FFFFFF97
:10020000FFFF43757272656E7420667573652073A7
:10021000657474696E677300C8A1A81FDA028D1433
:10022000AF20646F6E65002E2E2E2E2E2E2E207087
:100230006C65617365207761697420210043616C8E
:100240006962726174696E67202E2E2E2E2E2E2EFC
:100250002E2E005072657373206B657920746F20A9
:1002600063616C6962722E20004672657120286B92
:10027000487A293A2020202020004F534343414C04
:100280002076616C75653A202020202020000EC069
:1002900013C012C011C010C00FC00EC00DC00CC0E2
:1002A0000BC00AC009C008C007C006C011241FBE89
:1002B000CFEDCDBF02D013C0EACF80E090E007D0F1
:1002C00081BF81E087BB92E49ABD83BFFFCFE199F4
:1002D000FECF1FBA8EBBE09A99278DB30895F8948C
:1002E000FFCF09C00EC00DC00CC00BC00AC009C0B2
:1002F00008C007C006C011241FBECFE9CDBF02D081
:1003000012C0EFCF80E090E007D081BF81E087BBD3
:1003100092E49FBD83BFFFCFE199FECF8EBBE09AF1
:1003200099278DB30895F894FFCF43757272656E67
:1003300074204F53432073657474696E6773200093
:10034000507265737320616E79206B657920746FCC
:10035000206578697400526573657474696E6720EE
:1003600066696E69736865640050726573732061B5
:10037000206B657920746F20726573657420004866
:1003800056204675736520526573657474657200F6
:100390002831292043616C696272617465204F5372
:1003A000432020202028322920526573657420467E
:1003B000757365732020202020202833292045785C
:1003C00069742020202020202020202020202000B0
:1003D000415474696E7900436865636B20636F7282
:1003E0007265637420706C6163652D206D656E7439
:1003F000206F6620746865206368697020616E6490
:100400002070726573732061206B657920746F2092
:1004100072657472792E004552524F522021004469
:10042000657465637465643A200054696E7920438D
:10043000616C69627261746F722076302E3320496C
:100440006E736572742020415474696E792020693E
:100450006E746F2074686520736F636B65742061C0
:100460006E6420707265737320616E79206B65799C
:1004700020746F20636F6E74696E75652E200000A6
:1004800011241FBECFE5D2E0DEBFCDBF10E0A0E655
:10049000B0E0E2E1FEE002C005900D92A438B107A1
:1004A000D9F720E0A4E8B0E001C01D92A739B20757
:1004B000E1F75ED3ACC4A4CD17B8369A3699FECF17
:1004C00044B155B180E0E82FF0E0EE0FFF1FE65990
:1004D000FF4F208131814217530710F48F5FF3CF14
:1004E0000895D8988BB38F758BBBC2988BB38075EA
:1004F0008BBB8AB380758ABBC298BA980895D69A86
:10050000D498D6980895C89598E087FF02C0D698E9
:1005100001C0D69AC895D498C895D49A880F91509E
:10052000A1F7C895C895D698D498C895D49A089537
:10053000D69AD49A88E7E7CFCF93DF93C82FD62FE8
:10054000F7DF80E0E0DF8C2F8F70DDDF8C2F82956E
:100550008F708061D8DF8D2F8770806BD4DFCFDF05
:10056000C0938500D0938400DF91CF9108950F93BD
:100570001F93CF93DF93082E000C990B80978C016B
:10058000000F111F000F111F080F191F80E0BBDFA4
:10059000C0E0D0E0F801EC0FFD1FEE5DFF4F84914D
:1005A000B2DF2196C530D105A9F7809185008A5F19
:1005B000809385008B3778F0A2DF609184006F5FB5
:1005C0006093840080E0B8DFB3DF80E4DF91CF91F7
:1005D0001F910F9198CFDF91CF911F910F910895A7
:1005E000EF92FF920F931F93CF93DF938C01A0DFC5
:1005F00080E489DF80E6E82E80E0F82EC0E0D0E0DD
:10060000F701219131917F0180E00217130728F053
:100610008F5F021B130BD1E0F8CFD11102C0C430A1
:1006200011F4805D01C080E2A2DFCF5FC53041F7E9
:10063000DF91CF911F910F91FF90EF9060CFCF93FB
:10064000C82F76DF80E45FDF8C2F82958F708A3031
:1006500010F4805D01C0895C8ADF8C2F8F708A3036
:1006600010F4805D01C0895C82DFCF9148CFCF93C9
:10067000DF93EC015DDF80E446DFFE018491882397
:1006800019F075DF2196F9CFDF91CF9138CF0F9315
:100690001F93CF938C014CDF80E435DFF80180811C
:1006A000C0E0882339F063DFCF5FF801EC0FF11D64
:1006B0008081F7CFCF911F910F9121CFCF93DF93FF
:1006C000C0E06C2F80E038DF33DF80E41CDFD0E84F
:1006D00080E019DFD150E1F712DFCF5FC43089F736
:1006E000DF91CF910895E8DE8111FDCF8FE295E78C
:1006F0000197F1F700C00000DFDE8823B9F3089509
:10070000BA9AC29A2FE789EA93E02150804090403C
:10071000E1F700C0000081E080938E0010928D0010
:1007200012BE1DBC1CBC82E08EBD86E083BF8091E2
:100730008E008111FCCF20918D0082B790E0922B2A
:10074000969587959093930080939200C298BA985B
:100750002FE389E191E0215080409040E1F700C013
:1007600000000895282F8AE0C99B08C0DB98DA981A
:10077000D89A0000D89898E080E009C0E7EBFBE049
:100780003197F1F700C00000815071F7EFCF27FFDC
:1007900002C0DB9A01C0DB9867FF02C0DA9A01C091
:1007A000DA98220F660F880FC9998160D89A0000E5
:1007B000D898915061F7DB98DA98D89A0000D898C9
:1007C000D89A0000D8980895CF93C82F6CE481E19F
:1007D000C9DF6CE080E0C6DF6CE28C2FC3DF6DE622
:1007E00080E0C0DF64E680E0BDDF6CE680E0BADF79
:1007F000C99BFECF6CE480E0CF91B4CF8F929F92E3
:10080000AF92BF92CF92DF92EF92FF920F931F931E
:10081000CF93DF936C01809196008350823018F45F
:1008200020E2E22E02C090E1E92EEB012196D6955E
:10083000C7956CE480E196DF00E010E0F12C470101
:1008400081E0881A91086CE0802F8CDFF60184919A
:100850006CE288DFF2E0CF0ED11CF6013197849173
:100860006CE380DF6DE780E07DDF6CE780E07ADFBE
:100870000F5F1F4F5401A022B122A114B10421F037
:10088000C017D10701F70FC06CE1C8018E199F098D
:10089000892F68DF64E680E065DF6CE680E062DF78
:1008A000C99BFECFEDCFAB2879F46CE480E0DF91FB
:1008B000CF911F910F91FF90EF90DF90CF90BF905D
:1008C000AF909F908F904ECF6CE18D2F4BDF64E601
:1008D00080E048DF6CE680E045DFC99BFECFE5CFD6
:1008E0006CE480E83FDF64E680E03CDF6CE680E0BB
:1008F00039DFC99BFECF6CE480E034CF6CE480E448
:1009000031DF6CE280918C002DDF64E680E02ADF2D
:100910006CE680E027DF6CE480E424DF6CE2809109
:100920008B0020DF64E780E01DDF6CE780E01ADFEA
:1009300080919600813071F06CE480E413DF809147
:100940008A006CE281700EDF66E680E00BDF6EE607
:1009500080E008CF08950F931F936CE488E002DFD6
:100960006CE080E0FFDE68E680E0FCDE6CE680E0C4
:10097000F9DE90E0A0E0B0E0BA2FA92F982F8827E9
:100980008093860090938700A0938800B09389009D
:100990006CE081E0E7DE68E680E0E4DE6CE680E0C3
:1009A000E1DE40918600509187006091880070914F
:1009B0008900482B762F652F542F442740938600BB
:1009C0005093870060938800709389006CE082E008
:1009D000C9DE68E680E0C6DE6CE680E0C3DE4091FA
:1009E00086005091870060918800709189008A018B
:1009F0009B01082BD901C801809386009093870042
:100A0000A0938800B0938900883011E991071EE116
:100A1000A107B105F1F078F487309049AE41B105F6
:100A200039F581E0809396008AE680938C008FEF01
:100A300080938B001FC0863002E990070EE1A0076B
:100A4000B10549F08B309349AE41B10589F484E09A
:100A500003C082E001C083E08093960082E6809329
:100A60008C008FED80938B008FEF80938A0002C003
:100A7000109296001F910F9108958BB380758BBBD8
:100A80008AB38F6A8ABBC298BA9AC29A80E58A955D
:100A9000F1F7DF9A98E29A95F1F7D19883E893E01D
:100AA0000197F1F700C000000895E7DF6CE484E0EF
:100AB00059DE68E680E056DE6CE680E053DE809327
:100AC00091006CE484E04EDE6AE780E04BDE6EE786
:100AD00080E048DE8093900080919600813059F04C
:100AE0006CE484E03FDE6AE680E03CDE6EE680E0B7
:100AF00039DE80938F00F5DC61E080E01DDD82E06F
:100B000092E0B5DD82E790E0C2DD8091910097DD53
:100B100086E790E0BCDD8091900091DD80919600A9
:100B2000813031F08DE790E0B2DD80918F0087CD8C
:100B300008951F920F920FB60F92112413BE1EBC80
:100B400010928E000F900FBE0F901F9018951F925D
:100B50000F920FB60F9211248F9380918D008F5FAB
:100B600080938D008F910F900FBE0F901F9018955E
:100B700080E886B980E49CEB9BBD8ABD81E089BF9B
:100B800082E08CB978948AB38F7A8ABB8BB38F7AE0
:100B90008BBBCEDC80E0B7DCC8E1D2E0FE01849103
:100BA000B2DC2196F2E0C132DF07C1F7A8DC86DDB6
:100BB00060E080E0C1DC8AE294E059DD94DD5DDF35
:100BC000CADE8FDC7BDD60E080E0B6DC8FE194E0A4
:100BD0004EDDC0919600C11109C087E194E047DD68
:100BE00061E080E0A9DC87ED93E00EC180ED93E049
:100BF0003EDDC23059F020F4C13061F483E109C018
:100C0000C33031F0C43031F485E803C085E201C05F
:100C100085E415DD61E080E08FDC80E993E027DD8D
:100C200062DD813021F0823009F4B7C0C0CF60E0CE
:100C300080E082DC8AE293E01ADD1FDF8CDE6CE468
:100C400088E090DD6CE080E08DDD68E780E08ADDA3
:100C50006CE780E087DD809394008091960081307E
:100C600061F46CE488E07EDD6CE081E07BDD68E7C8
:100C700080E078DD6CE780E075DD32DE3FDE80917C
:100C80009600813029F468E470E082EE92E004C0BE
:100C900064E570E08EE892E0B1DD8091940094DD2F
:100CA00020DC2EDD8AE792E0E2DC80919400C7DC54
:100CB00089E692E0DCDC809192009091930090DCD8
:100CC00083E592E0D4DC0FDD60E080E035DC8DE38D
:100CD00092E0CDDC63E080E02FDC87E292E0C7DCCD
:100CE000F090940080919600813019F4C0E8D5E22C
:100CF00002C0C0E4DFE1EF2CCC24CA94DC2C0091CC
:100D0000920010919300C017D10720F4C8018C1BEA
:100D10009D0B03C0CE01801B910B8C159D0588F5A2
:100D200061E080E009DC8AE792E0A1DC8F2D87DCBE
:100D300089E692E09CDCC80153DCC017D10728F497
:100D40006801CC1ADD0A1FEF04C06E01C01AD10A77
:100D500011E01F0D92DEC4DD80919600813029F4F0
:100D600068E470E082EE92E004C064E570E08EE832
:100D700092E044DD812F28DDB4DBC2DCEF2CF12EC4
:100D8000BECF7BDEADDD8E2D1FDDABDB60E080E610
:100D9000D3DB81E292E06BDC32C090DC60E080E08B
:100DA000CBDB8FE793E063DC80DE63E080E0C4DBD5
:100DB00089E693E05CDC97DC60DECDDD6CE484E00A
:100DC000D1DC68E780E0CEDC6CE780E0CBDC8370D0
:100DD00080939500811101C083DD90DD82DB2FE3DC
:100DE00089E191E0215080409040E1F700C000008F
:100DF00060E080E0A1DB86E593E039DC56DE63E06D
:100E000080E09ADB80E493E032DC6DDCD0CEF894B5
:020E1000FFCF12
:100E12001027E80364000A0001008003D60255028D
:100E220000006C3A2000202D20683A2000202D205E
:040E3200653A2000FD
:00000001FF
