:100000003FC259C258C257C256C255C2A1C553C2F7
:1000100052C251C250C2AAC54EC24DC24CC24BC2FE
:100020004AC2000000000000002F00000007000787
:1000300000147F147F14242A7F2A12231308646279
:1000400036495522500005030000001C22410000E3
:1000500041221C0014083E081408083E080800004D
:10006000A060000808080808006060000020100870
:1000700004023E5149453E00427F400042615149E1
:10008000462141454B311814127F1027454545390B
:100090003C4A494930017109050336494949360648
:1000A0004949291E00363600000056360000081463
:1000B00022410014141414140041221408020151A6
:1000C0000906324959513E7C1211127C7F49494937
:1000D000363E414141227F4141221C7F49494941ED
:1000E0007F090909013E4149497A7F0808087F00D4
:1000F000417F41002040413F017F081422417F4061
:100100004040407F020C027F7F0408107F3E414147
:10011000413E7F090909063E4151215E7F091929A7
:1001200046464949493101017F01013F4040403F76
:100130001F2040201F3F4038403F631408146307CE
:10014000087008076151494543007F41410002049E
:100150000810200041417F00040201020440404099
:100160004040000102040020545454787F48444425
:10017000383844444420384444487F385454541850
:10018000087E09010218A4A4A47C7F080404780056
:10019000447D40004080847D007F10284400004161
:1001A0007F40007C041804787C08040478384444B8
:1001B0004438FC2424241818242418FC7C08040443
:1001C000084854545420043F4440203C4040207C84
:1001D0001C2040201C3C4030403C44281028441C3B
:1001E000A0A0A07C4464544C440836414100000067
:1001F0007F000000414136080804081008FFFFFF97
:10020000FFFF43757272656E7420667573652073A7
:10021000657474696E677300C8A1A81FDA028D1433
:10022000AF20646F6E65002E2E2E2E2E2E2E207087
:100230006C65617365207761697420210043616C8E
:100240006962726174696E67202E2E2E2E2E2E2EFC
:100250002E2E005072657373206B657920746F20A9
:1002600063616C6962722E20004672657120286B92
:10027000487A293A2020202020004F534343414C04
:100280002076616C75653A202020203078000EC001
:1002900013C012C011C010C00FC00EC00DC00CC0E2
:1002A0000BC00AC009C008C007C006C011241FBE89
:1002B000CFEDCDBF02D013C0EACF80E090E007D0F1
:1002C00081BF81E087BB92E49ABD83BFFFCFE199F4
:1002D000FECF1FBA8EBBE09A99278DB30895F8948C
:1002E000FFCF09C00EC00DC00CC00BC00AC009C0B2
:1002F00008C007C006C011241FBECFE9CDBF02D081
:1003000012C0EFCF80E090E007D081BF81E087BBD3
:1003100092E49FBD83BFFFCFE199FECF8EBBE09AF1
:1003200099278DB30895F894FFCF43757272656E67
:1003300074204F53432073657474696E6773200093
:10034000507265737320616E79206B657920746FCC
:10035000206578697400526573657474696E6720EE
:1003600066696E69736865640050726573732061B5
:10037000206B657920746F20726573657420004866
:1003800056204675736520526573657474657200F6
:100390002831292043616C696272617465204F5372
:1003A000432020202028322920526573657420467E
:1003B000757365732020202020202833292045785C
:1003C00069742020202020202020202020202000B0
:1003D000415474696E7900436865636B20636F7282
:1003E0007265637420706C6163652D206D656E7439
:1003F000206F6620746865206368697020616E6490
:100400002070726573732061206B657920746F2092
:1004100072657472792E004552524F522021004469
:10042000657465637465643A200054696E7920438D
:10043000616C69627261746F722076302E3420496B
:100440006E736572742020415474696E792020693E
:100450006E746F2074686520736F636B65742061C0
:100460006E6420707265737320616E79206B65799C
:1004700020746F20636F6E74696E75652E200000A6
:1004800011241FBECFE5D2E0DEBFCDBF10E0A0E655
:10049000B0E0E0E3FEE002C005900D92A438B107A1
:1004A000D9F720E0A4E8B0E001C01D92A739B20757
:1004B000E1F76DD3BBC4A4CD17B8369A3699FECFF9
:1004C00044B155B180E0E82FF0E0EE0FFF1FE65990
:1004D000FF4F208131814217530710F48F5FF3CF14
:1004E0000895D8988BB38F758BBBC2988BB38075EA
:1004F0008BBB8AB380758ABBC298BA980895D69A86
:10050000D498D698089598E087FF02C0D69801C085
:10051000D69AD498C895D49A880F9150A9F7C895BF
:10052000D698D498C895D49A0895D69AD49A88E73C
:10053000EACFCF93DF93C82FD62FF7DF80E0E3DF3A
:100540008C2F8F70E0DF8C2F82958F708061DBDFC6
:100550008D2F8770806BD7DFD2DFC0938500D0935B
:100560008400DF91CF9108950F931F93CF93DF9372
:10057000082E000C990B80978C01000F111F000FA3
:10058000111F080F191F80E0BEDFC0E0D0E0F801A6
:10059000EC0FFD1FEE5DFF4F8491B5DF2196C53056
:1005A000D105A9F7809185008A5F809385008B37FC
:1005B00078F0A5DF609184006F5F6093840080E035
:1005C000B8DFB3DF80E4DF91CF911F910F919BCF14
:1005D000DF91CF911F910F910895EF92FF920F93AA
:1005E0001F93CF93DF938C01A0DF80E48CDF80E644
:1005F000E82E80E0F82EC0E0D0E0F70121913191A3
:100600007F0180E00217130728F08F5F021B130B96
:10061000D1E0F8CFD11102C0C43011F4805D01C027
:1006200080E2A2DFCF5FC53041F7DF91CF911F910C
:100630000F91FF90EF9063CFCF93C82F76DF80E4C8
:1006400062DF8C2F82958F708A3010F4805D01C03C
:10065000895C8ADF8C2F8F708A3010F4805D01C036
:10066000895C82DFCF914BCFCF93DF93EC015DDFCD
:1006700080E449DFFE018491882319F075DF21961B
:10068000F9CFDF91CF913BCF0F931F93CF938C0185
:100690004CDF80E438DFF8018081C0E0882339F046
:1006A00063DFCF5FF801EC0FF11D8081F7CFCF91B1
:1006B0001F910F9124CFCF93DF93C0E06C2F80E088
:1006C00038DF33DF80E41FDFD0E880E01CDFD1506B
:1006D000E1F715DFCF5FC43089F7DF91CF9108953F
:1006E000BA9AC29A2FE739EA83E02150304080401D
:1006F000E1F700C00000E0DE8111FDCF8FE295E759
:100700000197F1F700C00000D7DE8823B9F3C29843
:10071000BA989FE329E131E0915020403040E1F761
:1007200000C000000895BA9AC29A2FE789EA93E0C0
:10073000215080409040E1F700C0000081E08093AC
:100740008E0010928D0012BE1DBC1CBC82E08EBDBE
:1007500086E083BF80918E008111FCCF20918D00B7
:1007600082B790E0922B9695879590939300809313
:100770009200C298BA982FE389E191E0215080401D
:100780009040E1F700C000000895282F8AE0C99B3F
:1007900008C0DB98DA98D89A0000D89898E080E0F2
:1007A00009C0E7EBFBE03197F1F700C00000815092
:1007B00071F7EFCF27FF02C0DB9A01C0DB9867FF1C
:1007C00002C0DA9A01C0DA98220F660F880FC99921
:1007D0008160D89A0000D898915061F7DB98DA9838
:1007E000D89A0000D8980000D89A0000D8980895A8
:1007F000CF93C82F6CE481E1C8DF6CE080E0C5DFF7
:1008000080919600813019F06CE180E0BEDF6CE2EF
:100810008C2FBBDF6DE680E0B8DF64E680E0B5DFFB
:100820006CE680E0B2DFC99BFECF6CE480E0CF9144
:10083000ACCF8F929F92AF92BF92CF92DF92EF9206
:10084000FF920F931F93CF93DF936C0180919600DB
:100850008350823018F420E2E22E02C090E1E92EAB
:10086000EB012196D695C7956CE480E18EDF00E020
:1008700010E0F12C470181E0881A91086CE0802F8C
:1008800084DFF60184916CE280DFF2E0CF0ED11CB0
:10089000F601319784916CE378DF6DE780E075DFD6
:1008A0006CE780E072DF0F5F1F4F5401A022B1227E
:1008B000A114B10421F0C017D10701F70FC06CE1FA
:1008C000C8018E199F09892F60DF64E680E05DDF33
:1008D0006CE680E05ADFC99BFECFEDCFAB2879F400
:1008E0006CE480E0DF91CF911F910F91FF90EF902A
:1008F000DF90CF90BF90AF909F908F9046CF6CE1EC
:100900008D2F43DF64E680E040DF6CE680E03DDF72
:10091000C99BFECFE5CF6CE480E837DF64E680E07A
:1009200034DF6CE680E031DFC99BFECF6CE480E011
:100930002CCF6CE480E429DF6CE280918C0025DF11
:1009400064E680E022DF6CE680E01FDF6CE28091ED
:100950008B001BDF64E780E018DF6CE780E015DFC9
:1009600080919600813059F080918A006CE281700C
:100970000CDF66E680E009DF6EE680E006CF0895D2
:100980000F931F936CE488E000DF6CE080E0FDDEF5
:1009900068E680E0FADE6CE680E0F7DE90E0A0E05A
:1009A000B0E0BA2FA92F982F8827809386009093C4
:1009B0008700A0938800B09389006CE081E0E5DEB9
:1009C00068E680E0E2DE6CE680E0DFDE40918600F3
:1009D000509187006091880070918900482B762F94
:1009E000652F542F442740938600509387006093CF
:1009F0008800709389006CE082E0C7DE68E680E0E2
:100A0000C4DE6CE680E0C1DE409186005091870034
:100A100060918800709189008A019B01082BD9019F
:100A2000C8018093860090938700A0938800B093BC
:100A30008900883011E991071EE1A107B105F1F0A5
:100A400078F487309049AE41B10539F581E0809363
:100A500096008AE680938C008FEF80938B001FC0F6
:100A6000863002E990070EE1A007B10549F08B300E
:100A70009349AE41B10589F484E003C082E001C02E
:100A800083E08093960082E680938C008FED8093C4
:100A90008B008FEF80938A0002C0109296001F9106
:100AA0000F9108958BB380758BBB8AB38F6A8ABB15
:100AB000C298BA9AC29A80E58A95F1F7DF9A98E2CD
:100AC0009A95F1F7D19883E893E00197F1F700C088
:100AD00000000895E7DF6CE484E057DE68E680E01C
:100AE00054DE6CE680E051DE809391006AE780E09E
:100AF0004CDE6EE780E049DE8093900080919600A6
:100B0000813041F06AE680E040DE6EE680E03DDE66
:100B100080938F00E6DC61E080E00BDD82E092E014
:100B2000A3DD82E790E0B0DD8091910085DD86E76E
:100B300090E0AADD809190007FDD80919600813069
:100B400031F08DE790E0A0DD80918F0075CD0895A4
:100B50001F920F920FB60F92112413BE1EBC10925B
:100B60008E000F900FBE0F901F9018951F920F923E
:100B70000FB60F9211248F9380918D008F5F809319
:100B80008D008F910F900FBE0F901F90189586E8E3
:100B900086B980E49CEB9BBD8ABD81E089BF82E081
:100BA0008CB978948AB38F7A8ABB8BB38F7A8BBBDC
:100BB000BCDC80E0A8DCC8E1D2E0FE018491A3DCCB
:100BC0002196F2E0C132DF07C1F799DC74DD60E005
:100BD00080E0AFDC8AE294E047DD82DD63DFD0DED7
:100BE00080DC69DD60E080E0A4DC8FE194E03CDD46
:100BF000C0919600C11109C087E194E035DD61E044
:100C000080E097DC87ED93E00EC180ED93E02CDD72
:100C1000C23059F020F4C13061F483E109C0C3301F
:100C200031F0C43031F485E803C085E201C085E4C9
:100C300003DD61E080E07DDC80E993E015DD50DDDF
:100C4000813021F0823009F4B7C0C0CF60E080E08D
:100C500070DC8AE293E008DD25DF92DE6CE488E058
:100C600094DD6CE080E091DD68E780E08EDD6CE78C
:100C700080E08BDD8093940080919600813061F458
:100C80006CE488E082DD6CE081E07FDD68E780E095
:100C90007CDD6CE780E079DD3EDE4BDE8091960006
:100CA000813029F468E470E082EE92E004C064E5EB
:100CB00070E08EE892E0BDDD8091940099DD11DC5A
:100CC00032DD8AE792E0D0DC80919400B5DC89E6E1
:100CD00092E0CADC80919200909193007EDC83E5E3
:100CE00092E0C2DCFDDC60E080E023DC8DE392E09A
:100CF000BBDC63E080E01DDC87E292E0B5DCF090D5
:100D0000940080919600813019F4C0E8D5E202C0C9
:100D1000C0E4DFE1EF2CCC24CA94DC2C00919200DB
:100D200010919300C017D10720F4C8018C1B9D0BB4
:100D300003C0CE01801B910B8C159D0588F561E0E9
:100D400080E0F7DB8AE792E08FDC8F2D75DC89E6A7
:100D500092E08ADCC80141DCC017D10728F46801A1
:100D6000CC1ADD0A1FEF04C06E01C01AD10A11E0CF
:100D70001F0D98DED0DD80919600813029F468E463
:100D800070E082EE92E004C064E570E08EE892E0EC
:100D900050DD812F2DDDA5DBC6DCEF2CF12EBECF83
:100DA00081DEB9DD8E2D24DD9CDB60E080E6C1DBD9
:100DB00081E292E059DC32C07EDC60E080E0B9DBA9
:100DC0008FE793E051DC86DE63E080E0B2DB89E60A
:100DD00093E04ADC85DC66DED3DD6CE484E0D5DCC0
:100DE00068E780E0D2DC6CE780E0CFDC8370809342
:100DF0009500811101C08FDD9CDD73DB2FE389E15C
:100E000091E0215080409040E1F700C0000060E098
:100E100080E08FDB86E593E027DC5CDE63E080E04A
:100E200088DB80E493E020DC5BDCD0CEF894FFCF5D
:100E30001027E80364000A0001008003D60255026F
:100E400000006C3A2000202D20683A2000202D2040
:040E5000653A2000DF
:00000001FF
