:1000000046C260C25FC25EC25DC25CC2ABC55AC2BC
:1000100059C258C257C2B4C555C254C253C252C2C3
:1000200051C2000000000000002F00000007000780
:1000300000147F147F14242A7F2A12231308646279
:1000400036495522500005030000001C22410000E3
:1000500041221C0014083E081408083E080800004D
:10006000A060000808080808006060000020100870
:1000700004023E5149453E00427F400042615149E1
:10008000462141454B311814127F1027454545390B
:100090003C4A494930017109050336494949360648
:1000A0004949291E00363600000056360000081463
:1000B00022410014141414140041221408020151A6
:1000C0000906324959513E7C1211127C7F49494937
:1000D000363E414141227F4141221C7F49494941ED
:1000E0007F090909013E4149497A7F0808087F00D4
:1000F000417F41002040413F017F081422417F4061
:100100004040407F020C027F7F0408107F3E414147
:10011000413E7F090909063E4151215E7F091929A7
:1001200046464949493101017F01013F4040403F76
:100130001F2040201F3F4038403F631408146307CE
:10014000087008076151494543007F41410002049E
:100150000810200041417F00040201020440404099
:100160004040000102040020545454787F48444425
:10017000383844444420384444487F385454541850
:10018000087E09010218A4A4A47C7F080404780056
:10019000447D40004080847D007F10284400004161
:1001A0007F40007C041804787C08040478384444B8
:1001B0004438FC2424241818242418FC7C08040443
:1001C000084854545420043F4440203C4040207C84
:1001D0001C2040201C3C4030403C44281028441C3B
:1001E000A0A0A07C4464544C440836414100000067
:1001F0007F000000414136080804081008FFFFFF97
:10020000FFFF43757272656E7420667573652073A7
:10021000657474696E677300C8A1A81FDA028D1433
:10022000AF20646F6E65002E2E2E2E2E2E2E207087
:100230006C65617365207761697420210043616C8E
:100240006962726174696E67202E2E2E2E2E2E2EFC
:100250002E2E005072657373206B657920746F20A9
:1002600063616C6962722E20004672657120286B92
:10027000487A293A2020202020004F534343414C04
:100280002076616C75653A202020203078000EC001
:1002900013C012C011C010C00FC00EC00DC00CC0E2
:1002A0000BC00AC009C008C007C006C011241FBE89
:1002B000CFEDCDBF02D013C0EACF80E090E007D0F1
:1002C00081BF81E087BB92E49ABD83BFFFCFE199F4
:1002D000FECF1FBA8EBBE09A99278DB30895F8948C
:1002E000FFCF09C00EC00DC00CC00BC00AC009C0B2
:1002F00008C007C006C011241FBECFE9CDBF02D081
:1003000012C0EFCF80E090E007D081BF81E087BBD3
:1003100092E49FBD83BFFFCFE199FECF8EBBE09AF1
:1003200099278DB30895F894FFCF43757272656E67
:1003300074204F53432073657474696E6773200093
:10034000507265737320616E79206B657920746FCC
:10035000206578697400526573657474696E6720EE
:1003600066696E69736865640050726573732061B5
:10037000206B657920746F20726573657420004866
:1003800056204675736520526573657474657200F6
:100390002831292043616C696272617465204F5372
:1003A000432020202028322920526573657420467E
:1003B000757365732020202020202833292045785C
:1003C00069742020202020202020202020202000B0
:1003D000415474696E7900436865636B20636F7282
:1003E0007265637420706C6163652D206D656E7439
:1003F000206F6620746865206368697020616E6490
:100400002070726573732061206B657920746F2092
:1004100072657472792E004552524F522021004469
:10042000657465637465643A20004465746563743B
:10043000696E67202E2E2E0054696E792043616C00
:1004400069627261746F722076302E3520496E7346
:100450006572742020415474696E792020696E742D
:100460006F2074686520736F636B657420616E64C0
:1004700020707265737320616E79206B65792074CA
:100480006F20636F6E74696E75652E2000001124F5
:100490001FBECFE5D2E0DEBFCDBF10E0A0E6B0E0EA
:1004A000EAE6FEE002C005900D92A438B107D9F744
:1004B00020E0A4E8B0E001C01D92A739B207E1F73F
:1004C00070D3D1C49DCD17B8369A3699FECF44B1BA
:1004D00055B180E0E82FF0E0EE0FFF1FE659FF4F27
:1004E000208131814217530710F48F5FF3CF0895B5
:1004F000D8988BB38F758BBBC2988BB380758BBB31
:100500008AB380758ABBC298BA980895D69AD4984F
:10051000D698089598E087FF02C0D69801C0D69A71
:10052000D498C895D49A880F9150A9F7C895D698B1
:10053000D498C895D49A0895D69AD49A88E7EACFE1
:10054000CF93DF93C82FD62FF7DF80E0E3DF8C2F28
:100550008F70E0DF8C2F82958F708061DBDF8D2FB5
:100560008770806BD7DFD2DFC0938500D093840083
:10057000DF91CF9108950F931F93CF93DF93082EB0
:10058000000C990B80978C01000F111F000F111F99
:10059000080F191F80E0BEDFC0E0D0E0F801EC0FCB
:1005A000FD1FEE5DFF4F8491B5DF2196C530D1056B
:1005B000A9F7809185008A5F809385008B3778F05A
:1005C000A5DF609184006F5F6093840080E0B8DFF6
:1005D000B3DF80E4DF91CF911F910F919BCFDF912B
:1005E000CF911F910F910895EF92FF920F931F9358
:1005F000CF93DF938C01A0DF80E48CDF80E6E82ED0
:1006000080E0F82EC0E0D0E0F701219131917F0128
:1006100080E00217130728F08F5F021B130BD1E055
:10062000F8CFD11102C0C43011F4805D01C080E266
:10063000A2DFCF5FC53041F7DF91CF911F910F91BE
:10064000FF90EF9063CFCF93C82F76DF80E462DF17
:100650008C2F82958F708A3010F4805D01C0895C88
:100660008ADF8C2F8F708A3010F4805D01C0895C26
:1006700082DFCF914BCFCF93DF93EC015DDF80E43E
:1006800049DFFE018491882319F075DF2196F9CFA7
:10069000DF91CF913BCF0F931F93CF938C014CDF12
:1006A00080E438DFF8018081C0E0882339F063DF1F
:1006B000CF5FF801EC0FF11D8081F7CFCF911F9133
:1006C0000F9124CFCF93DF93C0E06C2F80E038DF11
:1006D00033DF80E41FDFD0E880E01CDFD150E1F79A
:1006E00015DFCF5FC43089F7DF91CF910895BA9AB3
:1006F000C29A20E52A95F1F7BF9AC79A30E53A9554
:10070000F1F7E1DE8111FDCF8FE295E70197F1F777
:1007100000C00000D8DE8823B9F3C798BF98C298FC
:10072000BA989FE329E131E0915020403040E1F751
:1007300000C000000895BA9AC29A2FE789EA93E0B0
:10074000215080409040E1F700C0000081E080939C
:100750008E0010928D0012BE1DBC1CBC82E08EBDAE
:1007600086E083BF80918E008111FCCF20918D00A7
:1007700082B790E0922B9695879590939300809303
:100780009200C298BA982FE389E191E0215080400D
:100790009040E1F700C000000895282F8AE0C99B2F
:1007A00008C0DB98DA98D89A0000D89898E080E0E2
:1007B00009C0E7EBFBE03197F1F700C00000815082
:1007C00071F7EFCF27FF02C0DB9A01C0DB9867FF0C
:1007D00002C0DA9A01C0DA98220F660F880FC99911
:1007E0008160D89A0000D898915061F7DB98DA9828
:1007F000D89A0000D8980000D89A0000D898089598
:10080000CF93C82F6CE481E1C8DF6CE080E0C5DFE6
:1008100080919600813019F06CE180E0BEDF6CE2DF
:100820008C2FBBDF6DE680E0B8DF64E680E0B5DFEB
:100830006CE680E0B2DFC99BFECF6CE480E0CF9134
:10084000ACCF8F929F92AF92BF92CF92DF92EF92F6
:10085000FF920F931F93CF93DF936C0180919600CB
:100860008350823018F420E2E22E02C090E1E92E9B
:10087000EB012196D695C7956CE480E18EDF00E010
:1008800010E0F12C470181E0881A91086CE0802F7C
:1008900084DFF60184916CE280DFF2E0CF0ED11CA0
:1008A000F601319784916CE378DF6DE780E075DFC6
:1008B0006CE780E072DF0F5F1F4F5401A022B1226E
:1008C000A114B10421F0C017D10701F70FC06CE1EA
:1008D000C8018E199F09892F60DF64E680E05DDF23
:1008E0006CE680E05ADFC99BFECFEDCFAB2879F4F0
:1008F0006CE480E0DF91CF911F910F91FF90EF901A
:10090000DF90CF90BF90AF909F908F9046CF6CE1DB
:100910008D2F43DF64E680E040DF6CE680E03DDF62
:10092000C99BFECFE5CF6CE480E837DF64E680E06A
:1009300034DF6CE680E031DFC99BFECF6CE480E001
:100940002CCF6CE480E429DF6CE280918C0025DF01
:1009500064E680E022DF6CE680E01FDF6CE28091DD
:100960008B001BDF64E780E018DF6CE780E015DFB9
:1009700080919600813059F080918A006CE28170FC
:100980000CDF66E680E009DF6EE680E006DFC99BEB
:10099000FECF08950F931F936CE488E0FEDE6CE0B9
:1009A00080E0FBDE68E680E0F8DE6CE680E0F5DE05
:1009B00090E0A0E0B0E0BA2FA92F982F882780936D
:1009C000860090938700A0938800B09389006CE024
:1009D00081E0E3DE68E680E0E0DE6CE680E0DDDE1C
:1009E0004091860050918700609188007091890045
:1009F000482B762F652F542F442740938600509321
:100A0000870060938800709389006CE082E0C5DE07
:100A100068E680E0C2DE6CE680E0BFDE40918600E2
:100A20005091870060918800709189008A019B0134
:100A3000082BD901C8018093860090938700A0936A
:100A40008800B0938900883011E991071EE1A10761
:100A5000B105F1F078F487309049AE41B10539F530
:100A600081E0809396008AE680938C008FEF8093DC
:100A70008B001FC0863002E990070EE1A007B10588
:100A800049F08B309349AE41B10589F484E003C04D
:100A900082E001C083E08093960082E680938C0020
:100AA0008FED80938B008FEF80938A0002C01092AD
:100AB00096001F910F9108958BB380758BBB8AB3FD
:100AC0008F6A8ABBC298BA9AC29A80E58A95F1F772
:100AD000DF9A98E29A95F1F7D19883E893E001972D
:100AE000F1F700C000000895E7DF6CE484E055DE14
:100AF00068E680E052DE6CE680E04FDE8093910095
:100B00006AE780E04ADE6EE780E047DE809390008F
:100B100080919600813041F06AE680E03EDE6EE62C
:100B200080E03BDE80938F00E3DC61E080E008DD65
:100B300082E092E0A0DD82E790E0ADDD809191005F
:100B400082DD86E790E0A7DD809190007CDD8091DA
:100B50009600813031F08DE790E09DDD80918F002F
:100B600072CD08951F920F920FB60F92112413BEEB
:100B70001EBC10928E000F900FBE0F901F90189504
:100B80001F920F920FB60F9211248F9380918D00B8
:100B90008F5F80938D008F910F900FBE0F901F90ED
:100BA000189586E886B980E49CEB9BBD8ABD81E000
:100BB00089BF82E08CB978948AB38F7A8ABB8BB371
:100BC0008F7A8BBBB9DC80E0A5DCC8E1D2E0FE0106
:100BD0008491A0DC2196F2E0C132DF07C1F796DCF8
:100BE00071DD60E080E0ACDC88E394E044DD7FDD33
:100BF00069DD60E080E0A4DC8AE294E03CDDC8E0EE
:100C00005BDFC8DE75DC80919600882399F060E098
:100C100080E096DC8FE194E02EDDC0919600C1115A
:100C200015C087E194E027DD61E080E089DC87ED95
:100C300093E016C12FE789EA93E02150804090406D
:100C4000E1F700C00000C150D9F6E1CF80ED93E09C
:100C500012DDC23059F020F4C13061F483E109C0E3
:100C6000C33031F0C43031F485E803C085E201C0FF
:100C700085E4E9DC61E080E063DC80E993E0FBDCB3
:100C800036DD813021F0823009F4B3C0A9CF60E0B5
:100C900080E056DC8AE293E0EEDC0EDF7BDE6CE483
:100CA00088E07BDD6CE080E078DD68E780E075DD82
:100CB0006CE780E072DD8093940080919600813033
:100CC00041F46CE06ADD68E780E067DD6CE780E0B6
:100CD00064DD29DE36DE80919600813029F468E4F7
:100CE00070E082EE92E004C064E570E08EE892E08D
:100CF000A8DD8091940084DDFBDB1DDD8AE792E0B6
:100D0000BADC809194009FDC89E692E0B4DC8091AB
:100D100092009091930068DC83E592E0ACDCE7DC24
:100D200060E080E00DDC8DE392E0A5DC63E080E034
:100D300007DC87E292E09FDCF090940080919600BF
:100D4000813019F4C0E8D5E202C0C0E4DFE1EF2C45
:100D5000CC24CA94DC2C0091920010919300C0170F
:100D6000D10720F4C8018C1B9D0B03C0CE01801B52
:100D7000910B8C159D0588F561E080E0E1DB8AE749
:100D800092E079DC8F2D5FDC89E692E074DCC801AB
:100D90002BDCC017D10728F46801CC1ADD0A1FEF3D
:100DA00004C06E01C01AD10A11E01F0D85DEBBDD43
:100DB00080919600813029F468E470E082EE92E040
:100DC00004C064E570E08EE892E03BDD812F18DD21
:100DD0008FDBB1DCEF2CF12EBECF6EDEA4DD8E2DCD
:100DE0000FDD86DB60E080E6ABDB81E292E043DC96
:100DF00032C068DC60E080E0A3DB8FE793E03BDC9F
:100E000073DE63E080E09CDB89E693E034DC6FDC3A
:100E100053DEC0DD6CE484E0C0DC68E780E0BDDC6C
:100E20006CE780E0BADC837080939500833009F032
:100E30007ADD87DD5DDBEFE3F9E121E0E150F040B1
:100E40002040E1F700C0000060E080E079DB86E54B
:100E500093E011DC49DE63E080E072DB80E493E044
:0A0E60000ADC45DCBDCEF894FFCF9C
:100E6A001027E80364000A0001008003D602550235
:100E7A0000006C3A2000202D20683A2000202D2006
:040E8A00653A2000A5
:00000001FF
