:1000000058C267C266C265C264C263C24FC561C2DC
:1000100060C25FC25EC258C55CC25BC25AC259C2EE
:1000200058C2000000000000002F00000007000779
:1000300000147F147F14242A7F2A12231308646279
:1000400036495522500005030000001C22410000E3
:1000500041221C0014083E081408083E080800004D
:10006000A060000808080808006060000020100870
:1000700004023E5149453E00427F400042615149E1
:10008000462141454B311814127F1027454545390B
:100090003C4A494930017109050336494949360648
:1000A0004949291E00363600000056360000081463
:1000B00022410014141414140041221408020151A6
:1000C0000906324959513E7C1211127C7F49494937
:1000D000363E414141227F4141221C7F49494941ED
:1000E0007F090909013E4149497A7F0808087F00D4
:1000F000417F41002040413F017F081422417F4061
:100100004040407F020C027F7F0408107F3E414147
:10011000413E7F090909063E4151215E7F091929A7
:1001200046464949493101017F01013F4040403F76
:100130001F2040201F3F4038403F631408146307CE
:10014000087008076151494543007F41410002049E
:100150000810200041417F00040201020440404099
:100160004040000102040020545454787F48444425
:10017000383844444420384444487F385454541850
:10018000087E09010218A4A4A47C7F080404780056
:10019000447D40004080847D007F10284400004161
:1001A0007F40007C041804787C08040478384444B8
:1001B0004438FC2424241818242418FC7C08040443
:1001C000084854545420043F4440203C4040207C84
:1001D0001C2040201C3C4030403C44281028441C3B
:1001E000A0A0A07C4464544C440836414100000067
:1001F0007F000000414136080804081008FFFFFF97
:10020000FFFF1027E80364000A0001008003D60204
:1002100055020000202D20653A2000202D20683A4C
:1002200020006C3A200043757272656E742066750A
:1002300073652073657474696E677300C8A1A81F25
:10024000DA028D14AF20646F6E65002E2E2E2E2ED6
:100250002E2E20706C656173652077616974202192
:100260000043616C6962726174696E67202E2E2E84
:100270002E2E2E2E2E2E005072657373206B6579F4
:1002800020746F2063616C6962722E200046726573
:100290007120286B487A293A2020202020004F53D3
:1002A0004343414C2076616C75653A202020203014
:1002B00078000EC013C012C011C010C00FC00EC015
:1002C0000DC00CC00BC00AC009C008C007C006C0E2
:1002D00011241FBECFEDCDBF02D013C0EACF80E006
:1002E00090E007D081BF81E087BB92E49ABD83BFD5
:1002F000FFCFE199FECF1FBA8EBBE09A99278DB34D
:100300000895F894FFCF09C00EC00DC00CC00BC0FB
:100310000AC009C008C007C006C011241FBECFE92B
:10032000CDBF02D012C0EFCF80E090E007D081BFF8
:1003300081E087BB92E49FBD83BFFFCFE199FECFF1
:100340008EBBE09A99278DB30895F894FFCF43753B
:100350007272656E74204F53432073657474696EB6
:1003600067732000507265737320616E79206B652E
:100370007920746F206578697400526573657474B0
:10038000696E672066696E6973686564005072659E
:1003900073732061206B657920746F2072657365BB
:1003A0007420004856204675736520526573657445
:1003B000746572002831292043616C69627261742E
:1003C00065204F5343202020202832292052657376
:1003D0006574204675736573202020202020283303
:1003E00029204578697420202020202020202020EA
:1003F00020202000415474696E7900436865636B66
:1004000020636F727265637420706C6163652D2068
:100410006D656E74206F662074686520636869700E
:1004200020616E642070726573732061206B657942
:1004300020746F2072657472792E004552524F52AB
:1004400020210044657465637465643A2000446546
:1004500074656374696E67202E2E2E0054696E7960
:100460002043616C69627261746F722076312E3044
:1004700020496E736572742020415474696E79202E
:1004800020696E746F2074686520736F636B657488
:1004900020616E6420707265737320616E79206BC9
:1004A000657920746F20636F6E74696E75652E2098
:1004B000000011241FBECFE5D2E0DEBFCDBF20E09B
:1004C000A0E6B0E001C01D92A137B207E1F70DD35D
:1004D00076C496CD17B8369A3699FECF24B135B189
:1004E00080E0E82FF0E0EE0FFF1FE45FFD4F459145
:1004F00054912417350710F48F5FF3CF0895D898DF
:100500008BB38F758BBBC2988BB380758BBB8AB353
:1005100080758ABBC298BA980895D69AD498D6980E
:10052000089598E087FF02C0D69801C0D69AD49863
:10053000C895D49A880F9150A9F7C895D698D498A1
:10054000C895D49A0895D69AD49A88E7EACFCF93DB
:10055000DF93C82FD62FF7DF80E0E3DF8C2F8F707B
:10056000E0DF8C2F82958F708061DBDF8D2F8770AD
:10057000806BD7DFD2DFC0936100D0936000DF9142
:10058000CF9108950F931F93CF93DF93082E000C04
:10059000990B80978C01000F111F000F111F080F7E
:1005A000191F80E0BEDFC0E0D0E0F801EC0FFD1FB6
:1005B000EE5DFF4F8491B5DF2196C530D105A9F7D7
:1005C000809161008A5F809361008B3778F0A5DFAE
:1005D000609160006F5F6093600080E0B8DFB3DF20
:1005E00080E4DF91CF911F910F919BCFDF91CF914D
:1005F0001F910F910895EF92FF920F931F93CF9346
:10060000DF937C01A0DF80E48CDF02E012E0C0E039
:10061000D0E0F8012591349180E0E216F30628F04D
:100620008F5FE21AF30AD1E0F8CFD11102C0C430D3
:1006300011F4805D01C080E2A5DFCF5F0E5F1F4F28
:10064000C53039F7DF91CF911F910F91FF90EF9057
:1006500064CFCF93C82F77DF80E463DF8C2F90E0E7
:1006600024E0959587952A95E1F78A3010F4805D0E
:1006700001C0895C87DF8C2F8F708A3010F4805D19
:1006800001C0895C7FDFCF9148CFCF93DF93EC012E
:100690005ADF80E446DFFE018491882319F072DF7F
:1006A0002196F9CFDF91CF9138CFCF93DF93C0E080
:1006B0006C2F80E04CDF47DF80E433DFD0E880E060
:1006C00030DFD150E1F729DFCF5FC43089F7DF9108
:1006D000CF910895BA9AC29A20E52A95F1F7BF9A68
:1006E000C79A30E53A95F1F7F5DE8111FDCF8FE23B
:1006F00095E70197F1F700C00000ECDE8823B9F31D
:10070000C798BF98C298BA989FE329E131E0915009
:1007100020403040E1F700C000000895BA9AC29A24
:100720002FEF8FEA94E0215080409040E1F700C025
:10073000000081E0809368001092670012BE1DBC2B
:100740001CBC82E08EBD86E083BF80916800811171
:10075000FCCF2091670082B790E0922B9695879509
:1007600090936D0080936C00C298BA980895282FDA
:100770008AE0C99B07C0DB98DA98D89AD89898E0A5
:1007800080E009C0E7EBFBE03197F1F700C0000023
:10079000815079F7F0CF27FF02C0DB9A01C0DB98C8
:1007A00067FF02C0DA9A01C0DA98220F660F880F3D
:1007B000C9998160D89AD898915069F7DB98DA98EE
:1007C000D89AD898D89AD8980895CF93C82F6CE41F
:1007D00081E1CDDF6CE080E0CADF80917000813084
:1007E00019F06CE180E0C3DF6CE28C2FC0DF6DE6B6
:1007F00080E0BDDF64E680E0BADF6CE680E0B7DF72
:10080000C99BFECF6CE480E0CF91B1CF8F929F92D5
:10081000AF92BF92CF92DF92EF92FF920F931F930E
:10082000CF93DF936C01809170008350823018F475
:1008300020E2E22E02C090E1E92EEB012196D6954E
:10084000C7956CE480E193DF00E010E0F12C4701F4
:1008500081E0881A91086CE0802F89DFF60184918D
:100860006CE285DFF2E0CF0ED11CF6013197849166
:100870006CE37DDF6DE780E07ADF6CE780E077DFB7
:100880000F5F1F4F5401A022B122A114B10421F027
:10089000C017D10701F70FC06CE1C8018E199F097D
:1008A000892F65DF64E680E062DF6CE680E05FDF71
:1008B000C99BFECFEDCFAB2879F46CE480E0DF91EB
:1008C000CF911F910F91FF90EF90DF90CF90BF904D
:1008D000AF909F908F904BCF6CE18D2F48DF64E6F7
:1008E00080E045DF6CE680E042DFC99BFECFE5CFCC
:1008F0006CE480E83CDF64E680E039DF6CE680E0B1
:1009000036DFC99BFECF6CE480E031CF6CE480E43D
:100910002EDF6CE2809166002ADF64E680E027DF4C
:100920006CE680E024DF6CE28091650020DF64E704
:1009300080E01DDF6CE780E01ADF8091700081307D
:1009400059F0809164006CE2817011DF66E680E00E
:100950000EDF6EE680E00BDFC99BFECF08956CE4EE
:1009600088E005DF6CE081E002DF68E680E0FFDE22
:100970006CE680E0FCDE10926200809363006CE025
:1009800082E0F5DE68E680E0F2DE6CE680E0EFDE35
:100990002091620030916300A901482BCA01909315
:1009A000630080936200883051E99507B9F068F4DC
:1009B0008730904911F581E0809370008AE680933A
:1009C00066008FEF809365000895863052E99507A1
:1009D00039F08B30934989F484E003C082E001C090
:1009E00083E08093700082E6809366008FED8093B1
:1009F00065008FEF80936400089510927000089551
:100A00008BB380758BBB8AB38F6A8ABBC298BA9A44
:100A1000C29A80E58A95F1F7DF9A98E29A95F1F704
:100A2000D19883E893E00197F1F700C000000895A2
:100A3000E7DF6CE484E09BDE68E680E098DE6CE64D
:100A400080E095DE80936B006AE780E090DE6EE7E1
:100A500080E08DDE80936A0080917000813041F0EB
:100A60006AE680E084DE6EE680E081DE80936900E5
:100A700046DD61E080E06BDD86E292E006DE82E248
:100A800092E003DE80916B00E4DD8BE192E0FDDD1E
:100A900080916A00DEDD80917000813031F084E168
:100AA00092E0F3DD80916900D4CD08951F920F92FA
:100AB0000FB60F92112413BE1EBC109268000F9047
:100AC0000FBE0F901F9018951F920F920FB60F92A6
:100AD00011248F93809167008F5F809367008F91BF
:100AE0000F900FBE0F901F90189586E886B98FE77C
:100AF0009BEB9BBD8ABD81E089BF82E08CB9789475
:100B00008AB38F7A8ABB8BB38F7A8BBB1CDD80E074
:100B100008DD0CE312E0F801849103DD0F5F1F4F45
:100B2000F2E005341F07B9F7F8DCBFDD60E080E0D4
:100B30000EDD8CE594E0A9DDCDDDB7DD60E080E081
:100B400006DD8EE494E0A1DDC8E05ADF08DFD7DCE3
:100B500080917000882399F060E080E0F8DC83E405
:100B600094E093DDC0917000C11115C08BE394E057
:100B70008CDD61E080E0EBDC8BEF93E0EDC02FE7F4
:100B800089EA93E0215080409040E1F700C00000E6
:100B9000C150D9F6E1CF84EF93E077DDC23059F050
:100BA00020F4C13061F483E109C0C33031F0C430B6
:100BB00031F485E803C085E201C085E44ADD61E0E7
:100BC00080E0C5DC84EB93E060DD84DD813021F0E2
:100BD000823009F48AC0A9CF60E080E0B8DC8EE4FE
:100BE00093E053DD0DDFBBDE6CE488E0C0DD6CE03C
:100BF00080E0BDDD68E780E0BADD6CE780E0B7DD6E
:100C000080936E0080917000813041F46CE0AFDD24
:100C100068E780E0ACDD6CE780E0A9DD69DE76DEC8
:100C200080917000813029F468E470E086E093E000
:100C300004C064E570E082EB92E0E8DD80916E0034
:100C4000C4DD5DDC6BDD8EE992E01FDD80916E001E
:100C500000DD8DE892E019DD80916C0090916D00CF
:100C6000CADC87E792E011DD35DD60E080E06FDC13
:100C700081E692E00ADD63E080E069DC8BE492E0EB
:100C800004DDC0916E0080917000813029F490E8FD
:100C9000C92E95E2D92E04C080E4C82E8FE1D82E4B
:100CA0008C2F0FEF1FEFE0906C00F0906D00CE14D2
:100CB000DF0440F45701AC18BD08A016B10608F4D3
:100CC0004EC007C05601AE18BF08A016B10608F402
:100CD0005AC0C82F95DE8C2F78DD11DC60E080E6ED
:100CE00036DC85E492E0D1DC32C0DFDC60E080E01D
:100CF0002EDC83EA93E0C9DC9BDE63E080E027DC46
:100D00008DE893E0C2DCE6DC7BDE29DE6CE484E087
:100D10002EDD68E780E02BDD6CE780E028DD837066
:100D200080936F00833009F0E3DDF0DDE8DBEFE373
:100D3000F9E121E0E150F0402040E1F700C000007F
:100D400060E080E004DC8AE793E09FDC71DE63E032
:100D500080E0FDDB84E693E098DCBCDCE6CE61E07D
:100D600080E0F5DB8EE992E090DC8C2F72DC8DE880
:100D700092E08BDCC7013FDC8501AB2809F4AACFE8
:100D8000FF24FA9413C061E080E0E1DB8EE992E099
:100D90007CDC8C2F5EDC8DE892E077DCC7012BDCFD
:100DA0008501AB2809F496CFFF24F394FC0E28DECE
:100DB0008F2D0BDDA4DBB2DC8C2FCF2D74CFF894FC
:020DC000FFCF63
:00000001FF
