:1000000046C260C25FC25EC25DC25CC265C55AC202
:1000100059C258C257C26EC555C254C253C252C209
:1000200051C2000000000000002F00000007000780
:1000300000147F147F14242A7F2A12231308646279
:1000400036495522500005030000001C22410000E3
:1000500041221C0014083E081408083E080800004D
:10006000A060000808080808006060000020100870
:1000700004023E5149453E00427F400042615149E1
:10008000462141454B311814127F1027454545390B
:100090003C4A494930017109050336494949360648
:1000A0004949291E00363600000056360000081463
:1000B00022410014141414140041221408020151A6
:1000C0000906324959513E7C1211127C7F49494937
:1000D000363E414141227F4141221C7F49494941ED
:1000E0007F090909013E4149497A7F0808087F00D4
:1000F000417F41002040413F017F081422417F4061
:100100004040407F020C027F7F0408107F3E414147
:10011000413E7F090909063E4151215E7F091929A7
:1001200046464949493101017F01013F4040403F76
:100130001F2040201F3F4038403F631408146307CE
:10014000087008076151494543007F41410002049E
:100150000810200041417F00040201020440404099
:100160004040000102040020545454787F48444425
:10017000383844444420384444487F385454541850
:10018000087E09010218A4A4A47C7F080404780056
:10019000447D40004080847D007F10284400004161
:1001A0007F40007C041804787C08040478384444B8
:1001B0004438FC2424241818242418FC7C08040443
:1001C000084854545420043F4440203C4040207C84
:1001D0001C2040201C3C4030403C44281028441C3B
:1001E000A0A0A07C4464544C440836414100000067
:1001F0007F000000414136080804081008FFFFFF97
:10020000FFFF43757272656E7420667573652073A7
:10021000657474696E677300C8A1A81FDA028D1433
:10022000AF20646F6E65002E2E2E2E2E2E2E207087
:100230006C65617365207761697420210043616C8E
:100240006962726174696E67202E2E2E2E2E2E2EFC
:100250002E2E005072657373206B657920746F20A9
:1002600063616C6962722E20004672657120286B92
:10027000487A293A2020202020004F534343414C04
:100280002076616C75653A202020203078000EC001
:1002900013C012C011C010C00FC00EC00DC00CC0E2
:1002A0000BC00AC009C008C007C006C011241FBE89
:1002B000CFEDCDBF02D013C0EACF80E090E007D0F1
:1002C00081BF81E087BB92E49ABD83BFFFCFE199F4
:1002D000FECF1FBA8EBBE09A99278DB30895F8948C
:1002E000FFCF09C00EC00DC00CC00BC00AC009C0B2
:1002F00008C007C006C011241FBECFE9CDBF02D081
:1003000012C0EFCF80E090E007D081BF81E087BBD3
:1003100092E49FBD83BFFFCFE199FECF8EBBE09AF1
:1003200099278DB30895F894FFCF43757272656E67
:1003300074204F53432073657474696E6773200093
:10034000507265737320616E79206B657920746FCC
:10035000206578697400526573657474696E6720EE
:1003600066696E69736865640050726573732061B5
:10037000206B657920746F20726573657420004866
:1003800056204675736520526573657474657200F6
:100390002831292043616C696272617465204F5372
:1003A000432020202028322920526573657420467E
:1003B000757365732020202020202833292045785C
:1003C00069742020202020202020202020202000B0
:1003D000415474696E7900436865636B20636F7282
:1003E0007265637420706C6163652D206D656E7439
:1003F000206F6620746865206368697020616E6490
:100400002070726573732061206B657920746F2092
:1004100072657472792E004552524F522021004469
:10042000657465637465643A20004465746563743B
:10043000696E67202E2E2E0054696E792043616C00
:1004400069627261746F722076302E3620496E7345
:100450006572742020415474696E792020696E742D
:100460006F2074686520736F636B657420616E64C0
:1004700020707265737320616E79206B65792074CA
:100480006F20636F6E74696E75652E2000001124F5
:100490001FBECFE5D2E0DEBFCDBF10E0A0E6B0E0EA
:1004A000EEEDFDE002C005900D92A438B107D9F73A
:1004B00020E0A4E8B0E001C01D92A539B207E1F741
:1004C0002AD38BC49DCD17B8369A3699FECF24B166
:1004D00035B180E0E82FF0E0EE0FFF1FE659FF4F47
:1004E000408151812417350710F48F5FF3CF0895B1
:1004F000D8988BB38F758BBBC2988BB380758BBB31
:100500008AB380758ABBC298BA980895D69AD4984F
:10051000D698089598E087FF02C0D69801C0D69A71
:10052000D498C895D49A880F9150A9F7C895D698B1
:10053000D498C895D49A0895D69AD49A88E7EACFE1
:10054000CF93DF93C82FD62FF7DF80E0E3DF8C2F28
:100550008F70E0DF8C2F82958F708061DBDF8D2FB5
:100560008770806BD7DFD2DFC0938500D093840083
:10057000DF91CF9108950F931F93CF93DF93082EB0
:10058000000C990B80978C01000F111F000F111F99
:10059000080F191F80E0BEDFC0E0D0E0F801EC0FCB
:1005A000FD1FEE5DFF4F8491B5DF2196C530D1056B
:1005B000A9F7809185008A5F809385008B3778F05A
:1005C000A5DF609184006F5F6093840080E0B8DFF6
:1005D000B3DF80E4DF91CF911F910F919BCFDF912B
:1005E000CF911F910F910895EF92FF920F931F9358
:1005F000CF93DF938C01A0DF80E48CDF80E6E82ED0
:1006000080E0F82EC0E0D0E0F701219131917F0128
:1006100080E00217130728F08F5F021B130BD1E055
:10062000F8CFD11102C0C43011F4805D01C080E266
:10063000A2DFCF5FC53041F7DF91CF911F910F91BE
:10064000FF90EF9063CFCF93C82F76DF80E462DF17
:100650008C2F90E024E0959587952A95E1F78A30D4
:1006600010F4805D01C0895C86DF8C2F8F708A302A
:1006700010F4805D01C0895C7EDFCF9147CFCF93BE
:10068000DF93EC0159DF80E445DFFE01849188238C
:1006900019F071DF2196F9CFDF91CF9137CF0F930A
:1006A0001F93CF93DF938C0147DF80E433DFE801B2
:1006B0008991882311F05FDFFBCFDF91CF911F91EC
:1006C0000F9124CFCF93DF93C0E06C2F80E038DF11
:1006D00033DF80E41FDFD0E880E01CDFD150E1F79A
:1006E00015DFCF5FC43089F7DF91CF910895BA9AB3
:1006F000C29A20E52A95F1F7BF9AC79A30E53A9554
:10070000F1F7E1DE8111FDCF8FE295E70197F1F777
:1007100000C00000D8DE8823B9F3C798BF98C298FC
:10072000BA989FE329E131E0915020403040E1F751
:1007300000C000000895BA9AC29A2FE789EA93E0B0
:10074000215080409040E1F700C0000081E080939C
:100750008C0010928B0012BE1DBC1CBC82E08EBDB2
:1007600086E083BF80918C008111FCCF20918B00AB
:1007700082B790E0922B9695879590939100809305
:100780009000C298BA982FE389E191E0215080400F
:100790009040E1F700C000000895282F8AE0C99B2F
:1007A00007C0DB98DA98D89AD89898E080E009C01A
:1007B000E7EBFBE03197F1F700C00000815079F7DB
:1007C000F0CF27FF02C0DB9A01C0DB9867FF02C0B1
:1007D000DA9A01C0DA98220F660F880FC9998160F2
:1007E000D89AD898915069F7DB98DA98D89AD8981F
:1007F000D89AD8980895CF93C82F6CE481E1CDDFC3
:100800006CE080E0CADF80919400813019F06CE1E7
:1008100080E0C3DF6CE28C2FC0DF6DE680E0BDDFDF
:1008200064E680E0BADF6CE680E0B7DFC99BFECF0C
:100830006CE480E0CF91B1CF8F929F92AF92BF9244
:10084000CF92DF92EF92FF920F931F93CF93DF939C
:100850006C01809194008350823018F420E2E22EE3
:1008600002C090E1E92EEB012196D695C7956CE484
:1008700080E193DF00E010E0F12C470181E0881A6D
:1008800091086CE0802F89DFF60184916CE285DFAE
:10089000F2E0CF0ED11CF601319784916CE37DDF3D
:1008A0006DE780E07ADF6CE780E077DF0F5F1F4F56
:1008B0005401A022B122A114B10421F0C017D10724
:1008C00001F70FC06CE1C8018E199F09892F65DF00
:1008D00064E680E062DF6CE680E05FDFC99BFECF0C
:1008E000EDCFAB2879F46CE480E0DF91CF911F91DC
:1008F0000F91FF90EF90DF90CF90BF90AF909F90BF
:100900008F904BCF6CE18D2F48DF64E680E045DFB0
:100910006CE680E042DFC99BFECFE5CF6CE480E867
:100920003CDF64E680E039DF6CE680E036DFC99BBF
:10093000FECF6CE480E031CF6CE480E42EDF6CE22B
:1009400080918A002ADF64E680E027DF6CE680E0A1
:1009500024DF6CE28091890020DF64E780E01DDF06
:100960006CE780E01ADF80919400813059F080912B
:1009700088006CE2817011DF66E680E00EDF6EE6D3
:1009800080E00BDFC99BFECF08956CE488E005DFB3
:100990006CE081E002DF68E680E0FFDE6CE680E08C
:1009A000FCDE10928600809387006CE082E0F5DE2A
:1009B00068E680E0F2DE6CE680E0EFDE2091860003
:1009C00030918700A901482BCA019093870080933A
:1009D0008600883051E99507B9F068F4873090496E
:1009E00011F581E0809394008AE680938A008FEF6E
:1009F000809389000895863052E9950739F08B304D
:100A0000934989F484E003C082E001C083E08093CD
:100A1000940082E680938A008FED809389008FEFA7
:100A20008093880008951092940008958BB3807588
:100A30008BBB8AB38F6A8ABBC298BA9AC29A80E586
:100A40008A95F1F7DF9A98E29A95F1F7D19883E8C1
:100A500093E00197F1F700C000000895E7DF6CE430
:100A600084E09BDE68E680E098DE6CE680E095DE60
:100A700080938F006AE780E090DE6EE780E08DDE95
:100A800080938E0080919400813041F06AE680E08E
:100A900084DE6EE680E081DE80938D0029DD61E0FA
:100AA00080E04EDD82E092E0EADD82E790E0F7DD73
:100AB00080918F00C8DD86E790E0F1DD80918E00A7
:100AC000C2DD80919400813031F08DE790E0E7DD68
:100AD00080918D00B8CD08951F920F920FB60F929E
:100AE000112413BE1EBC10928C000F900FBE0F90ED
:100AF0001F9018951F920F920FB60F9211248F938B
:100B000080918B008F5F80938B008F910F900FBE31
:100B10000F901F90189586E886B980E49CEB9BBDEA
:100B20008ABD81E089BF82E08CB978948AB38F7ADC
:100B30008ABB8BB38F7A8BBBFFDC80E0EBDCC8E138
:100B4000D2E0FE018491E6DC2196F2E0C132DF07BB
:100B5000C1F7DCDCB7DD60E080E0F2DC88E394E044
:100B60008EDDC5DDAFDD60E080E0EADC8AE294E0A6
:100B700086DDC8E05BDF09DFBBDC80919400882361
:100B800099F060E080E0DCDC8FE194E078DDC091FA
:100B90009400C11115C087E194E071DD61E080E04F
:100BA000CFDC87ED93E016C12FE789EA93E021506F
:100BB00080409040E1F700C00000C150D9F6E1CF7D
:100BC00080ED93E05CDDC23059F020F4C13061F477
:100BD00083E109C0C33031F0C43031F485E803C08B
:100BE00085E201C085E42FDD61E080E0A9DC80E9D9
:100BF00093E045DD7CDD813021F0823009F4B3C023
:100C0000A9CF60E080E09CDC8AE293E038DD0EDF73
:100C1000BCDE6CE488E0C1DD6CE080E0BEDD68E74E
:100C200080E0BBDD6CE780E0B8DD809392008091CE
:100C30009400813041F46CE0B0DD68E780E0ADDD28
:100C40006CE780E0AADD6ADE77DE80919400813077
:100C500029F468E470E082EE92E004C064E570E09C
:100C60008EE892E0E9DD80919200C5DD41DC63DD34
:100C70008AE792E004DD80919200E5DC89E692E06B
:100C8000FEDC8091900090919100AEDC83E592E0D3
:100C9000F6DC2DDD60E080E053DC8DE392E0EFDCFC
:100CA00063E080E04DDC87E292E0E9DCF0909200C6
:100CB00080919400813019F4C0E8D5E202C0C0E40C
:100CC000DFE1EF2CCC24CA94DC2C00919000109131
:100CD0009100C017D10720F4C8018C1B9D0B03C0E5
:100CE000CE01801B910B8C159D0588F561E080E09D
:100CF00027DC8AE792E0C3DC8F2DA5DC89E692E051
:100D0000BEDCC80171DCC017D10728F46801CC1A19
:100D1000DD0A1FEF04C06E01C01AD10A11E01F0DD9
:100D200085DEFCDD80919400813029F468E470E078
:100D300082EE92E004C064E570E08EE892E07CDD33
:100D4000812F59DDD5DBF7DCEF2CF12EBECF6EDE27
:100D5000E5DD8E2D50DDCCDB60E080E6F1DB81E26D
:100D600092E08DDC32C0AEDC60E080E0E9DB8FE752
:100D700093E085DC73DE63E080E0E2DB89E693E00C
:100D80007EDCB5DC53DE01DE6CE484E006DD68E782
:100D900080E003DD6CE780E000DD837080939300EA
:100DA000833009F0BBDDC8DDA3DBEFE3F9E121E02F
:100DB000E150F0402040E1F700C0000060E080E03A
:100DC000BFDB86E593E05BDC49DE63E080E0B8DB17
:0E0DD00080E493E054DC8BDCBDCEF894FFCFC2
:100DDE001027E80364000A0001008003D6025502C2
:100DEE0000006C3A2000202D20683A2000202D2093
:040DFE00653A200032
:00000001FF
